S00C0000756172742E737265635C
S11300000C9434000C9451000C9451000C94510045
S11300100C9451000C9451000C9451000C94510018
S11300200C9451000C9451000C9451000C94510008
S11300300C9451000C945D010C9451000C945100EB
S11300400C9451000C9451000C9434020C946202F0
S11300500C9451000C9472010C9451000C945100B6
S11300600C9451000C94510011241FBECFEFD8E022
S1130070DEBFCDBF11E0A0E0B1E0E0E0F6E002C0F9
S113008005900D92A034B107D9F721E0A0E4B1E0C6
S113009001C01D92A538B207E1F70E94F6000C9446
S11300A0FE020C940000299A85E08A95F1F700007D
S11300B029980895CF93C82F662311F0289A01C078
S11300C02898549A559A569A579A5F985E985D98CC
S11300D05C98CC230CF45F9AC6FD5E9AC5FD5D9ACC
S11300E0C4FD5C9A0E9453005F985E985D985C988A
S11300F0C3FD5F9AC2FD5E9AC1FD5D9AC0FD5C9A24
S11301000E9453005C9A5D9A5E9A5F9A87EB9BE02B
S11301100197F1F700C00000CF91089560E00E94BC
S11301205A000895611104C080580E948E000895F9
S113013080540E948E00089581E00E948E000895EC
S113014061E00E945A000895CF93DF93EC01219659
S1130150FC018081882329F00E94A00089918111EB
S1130160FBCFDF91CF910895CF93C82F209A559A52
S1130170219A549A559A569A579A8FEF99EF019764
S1130180F1F700C000005D9A5C9A0E9453008FE171
S11301909EE40197F1F700C000000E9453008FEF26
S11301A090E00197F1F700C000000E9453008FEF28
S11301B090E00197F1F700C000005C980E945300A2
S11301C08FEF90E00197F1F700C0000088E20E94F1
S11301D08E0088E00E948E000E949C0086E00E94AF
S11301E08E008C2F0E948E00CF9108958CE00E9487
S11301F0B40060E081E00E94920080E091E00E94FF
S1130200A40061E083E00E94920087E091E00E94F4
S1130210A40060E088E00E9492008CE091E00E94DB
S1130220A40060E08DE00E9492008EE091E00E94C4
S1130230A40061E088E00E94920080E191E00E94C5
S1130240A400ECE7F0E080818064808380818F7774
S1130250808380818E7F808380818D7F8083808175
S11302608B7F80838081877F8083EAE7F0E08081D1
S113027080688083808188608083808181608083BE
S1130280808182608083808184608083E1E8F0E003
S113029080818B7F8083808183608083EFE6F0E0C0
S11302A080818160808387E690E00E948C0278944C
S11302B082E191E00E94BA02FBCF1F920F920FB627
S11302C00F9211248F93EF93FF93EAE7F0E080817C
S11302D080648083FF91EF918F910F900FBE0F90F8
S11302E01F9018951F920F920FB60F9211240F931F
S11302F01F932F933F934F935F936F937F938F93AA
S11303009F93AF93BF93EF93FF93CF93DF9300D06B
S113031000D0CDB7DEB780E390E39A8389839C83D2
S11303208B83009178001091790060E088E00E944E
S1130330920088E191E00E94A4004AE0BE016F5F50
S11303407F4FC8010E94C90260E088E00E949200C9
S1130350CE0101960E94A400CE0101960E94BA0229
S11303608DE191E00E94BA0260E08DE00E9492006B
S113037088E191E00E94A40040E1BE016F5F7F4FDD
S1130380C8010E94C90260E08DE00E949200CE0183
S113039001960E94A40061E088E00E94920088E136
S11303A091E00E94A40061E08CE00E94920088E148
S11303B091E00E94A40061E088E00E9492004AE07B
S11303C0BE016F5F7F4FC8010E94C902093E23E04E
S11303D0120720F080E291E00E94A400C801895530
S11303E092408F38914020F485E291E00E94A4006D
S11303F0C8018F5591408336910520F48CE291E039
S11304000E94A400C801895C91098534910520F4F7
S113041081E391E00E94A400C80106978237910508
S113042020F486E391E00E94A400012B21F489E3E7
S113043091E00E94A4000F900F900F900F90DF9115
S1130440CF91FF91EF91BF91AF919F918F917F9148
S11304506F915F914F913F912F911F910F910F9049
S11304600FBE0F901F9018951F920F920FB60F9208
S113047011242F938F939F93EF93FF938091C00048
S11304802091C6008C71E0914201EF5FEF71909171
S11304904101E91739F0E0934201F0E0EB5BFE4FD4
S11304A0208301C082E090914001892B8093400118
S11304B0FF91EF919F918F912F910F900FBE0F900D
S11304C01F9018951F920F920FB60F9211248F93BD
S11304D09F93EF93FF939091440180914301981768
S11304E069F0E0914301EF5FEF71E0934301F0E0C5
S11304F0EB59FE4F80818093C60005C0E1ECF0E02B
S113050080818F7D8083FF91EF919F918F910F90D8
S11305100FBE0F901F901895109244011092430142
S1130520109242011092410199231CF422E020937D
S1130530C00090789093C5008093C40088E98093AC
S1130540C10086E08093C2000895209144012F5F8A
S11305502F71909143012917E1F3E22FF0E0EB5959
S1130560FE4F808320934401E1ECF0E080818062BF
S113057080830895CF93DF93EC018881882331F041
S113058021960E94A50289918111FBCFDF91CF9121
S11305900895BB274A3031F4992322F4BDE29095A3
S11305A081959F4F0C94D502BB27FB015527AA27A1
S11305B0880F991FAA1FA41710F0A41B83955051EC
S11305C0B9F7A05DAA3308F0A95DA193009779F764
S11305D0B111B1931192CB010C94EE02DC01FC0138
S11305E0672F71917723E1F7329704C07C916D9363
S11305F070836291AE17BF07C8F30895F894FFCFD4
S113060076616C75653A006B65793A006100620049
S1130610630048656C6C6F0020202020000A0D00E8
S11306206E6F6E650053656C656374004C6566742B
S113063000446F776E00557000526967687400005B
S9030000FC
