S00B00004C65642E7372656304
S11300000C9434000C943E000C943E000C943E007E
S11300100C943E000C943E000C943E000C943E0064
S11300200C943E000C943E000C943E000C943E0054
S11300300C943E000C943E000C943E000C943E0044
S11300400C943E000C943E000C943E000C943E0034
S11300500C943E000C943E000C943E000C943E0024
S11300600C943E000C943E0011241FBECFEFD8E048
S1130070DEBFCDBF0E9440000C940A010C94000026
S1130080259A2D9880E22D982FEF33ED90E321509F
S113009030409040E1F700C0000095B1982795B931
S11300A02FEF33ED90E3215030409040E1F700C052
S11300B000002D982FEF34E39CE021503040904015
S11300C0E1F700C0000095B1982795B92FEF34E30C
S11300D09CE0215030409040E1F700C000002D9892
S11300E02FEF34E39CE0215030409040E1F700C012
S11300F0000095B1982795B92FEF34E39CE0215087
S113010030409040E1F700C000002D982FEF33ED10
S113011090E3215030409040E1F700C0000095B1D9
S1130120982795B92FEF34E39CE02150304090405C
S1130130E1F700C000002D982FEF33ED90E321503C
S113014030409040E1F700C0000095B1982795B980
S11301502FEF34E39CE0215030409040E1F700C0A1
S113016000002D982FEF34E39CE021503040904064
S1130170E1F700C0000095B1982795B92FEF34E35B
S11301809CE0215030409040E1F700C000002D98E1
S11301902FEF34E39CE0215030409040E1F700C061
S11301A0000095B1982795B92FEF33ED90E32150D6
S11301B030409040E1F700C000002D982FEF34E369
S11301C09CE0215030409040E1F700C0000095B120
S11301D0982795B92FEF33ED90E3215030409040AC
S11301E0E1F700C000002D982FEF34E39CE021508C
S11301F030409040E1F700C0000095B1982795B9D0
S11302002FEF33ED90E3215030409040E1F700C0F0
S10B0210000039CFF894FFCF80
S9030000FC
